:020000040800F2
:10000000C02C00247D800008F514010869800008D8
:10001000698000086980000869800008000000000D
:10002000000000000000000000000000C580000883
:1000300069800008000000008182000845B10008C6
:10004000FD820008FD820008FD820008FD82000894
:10005000FD820008FD820008FD820008FD82000884
:10006000FD820008FD820008FD820008FD82000874
:10007000FD820008FD820008FD820008FD82000864
:1002800081F0004102E000BF83F0004330B54FEA47
:1002900041044FEA430594EA050F08BF90EA020FB4
:1002A0001FBF54EA000C55EA020C7FEA645C7FEA47
:1002B000655C00F0E2804FEA5454D4EB5555B8BF6A
:1002C0006D420CDD2C4480EA020281EA030382EADB
:1002D000000083EA010180EA020281EA0303362D6D
:1002E00088BF30BD11F0004F4FEA01314FF4801C40
:1002F0004CEA113102D0404261EB410113F0004F52
:100300004FEA03334CEA133302D0524263EB430308
:1003100094EA050F00F0A780A4F10104D5F1200EA6
:100320000DDB02FA0EFC22FA05F2801841F1000101
:1003300003FA0EF2801843FA05F359410EE0A5F1D5
:1003400020050EF1200E012A03FA0EFC28BF4CF006
:10035000020C43FA05F3C01851EBE37101F00045BC
:1003600007D54FF0000EDCF1000C7EEB00006EEBC9
:100370000101B1F5801F1BD3B1F5001F0CD3490853
:100380005FEA30004FEA3C0C04F101044FEA4452AA
:1003900012F5800F80F09A80BCF1004F08BF5FEA31
:1003A000500C50F1000041EB045141EA050130BD11
:1003B0005FEA4C0C404141EB0101013C28BFB1F523
:1003C000801FE9D291F0000F04BF01460020B1FA6E
:1003D00081F308BF2033A3F10B03B3F120020CDA41
:1003E0000C3208DD02F1140CC2F10C0201FA0CF01F
:1003F00021FA02F10CE002F11402D8BFC2F1200C84
:1004000001FA02F120FA0CFCDCBF41EA0C01904039
:10041000E41AA2BF01EB0451294330BD6FEA040482
:100420001F3C1CDA0C340EDC04F11404C4F120026D
:1004300020FA04F001FA02F340EA030021FA04F37F
:1004400045EA030130BDC4F10C04C4F1200220FAD6
:1004500002F001FA04F340EA0300294630BD21FA14
:1004600004F0294630BD94F0000F83F4801306BFDA
:1004700081F480110134013D4EE77FEA645C18BFCE
:100480007FEA655C29D094EA050F08BF90EA020F65
:1004900005D054EA000C04BF1946104630BD91EA5D
:1004A000030F1EBF0021002030BD5FEA545C05D160
:1004B0004000494128BF41F0004130BD14F580049F
:1004C0003CBF01F5801130BD01F0004545F0FE4113
:1004D00041F470014FF0000030BD7FEA645C1ABF48
:1004E000194610467FEA655C1CBF0B46024650EA7F
:1004F000013406BF52EA033591EA030F41F40021AB
:1005000030BD00BF90F0000F04BF0021704730B530
:100510004FF4806404F132044FF000054FF0000105
:1005200050E700BF90F0000F04BF0021704730B5C6
:100530004FF4806404F1320410F0004548BF40429B
:100540004FF000013EE700BF42004FEAE2014FEAF0
:1005500031014FEA02701FBF12F07F4393F07F4FCB
:1005600081F06051704732F07F4208BF704793F0CE
:100570007F4F04BF41F40021704730B54FF46074E1
:1005800001F0004521F000411CE700BF50EA0102E4
:1005900008BF704730B54FF000050AE050EA01028D
:1005A00008BF704730B511F0004502D5404261EBFD
:1005B00041014FF4806404F132045FEA915C3FF43E
:1005C000D8AE4FF003025FEADC0C18BF03325FEADB
:1005D000DC0C18BF033202EBDC02C2F1200300FA8C
:1005E00003FC20FA02F001FA03FE40EA0E0021FAB1
:1005F00002F11444BDE600BF70B54FF0FF0C4CF49F
:10060000E06C1CEA11541DBF1CEA135594EA0C0F50
:1006100095EA0C0F00F0DEF82C4481EA030621EA8B
:100620004C5123EA4C5350EA013518BF52EA0335C6
:1006300041F4801143F4801338D0A0FB02CE4FF078
:100640000005E1FB02E506F00042E0FB03E54FF0A8
:100650000006E1FB03569CF0000F18BF4EF0010EA0
:10066000A4F1FF04B6F5007F64F5407404D25FEA9C
:100670004E0E6D4146EB060642EAC62141EA55514F
:100680004FEAC52040EA5E504FEACE2EB4F1FD0C91
:1006900088BFBCF5E06F1ED8BEF1004F08BF5FEA0F
:1006A000500E50F1000041EB045170BD06F00046C1
:1006B00046EA010140EA020081EA0301B4EB5C046E
:1006C000C2BFD4EB0C0541EA045170BD41F4801166
:1006D0004FF0000E013C00F3AB8014F1360FDEBF8B
:1006E000002001F0004170BDC4F10004203C35DA67
:1006F0000C341BDC04F11404C4F1200500FA05F3EA
:1007000020FA04F001FA05F240EA020001F000428A
:1007100021F0004110EBD37021FA04F642EB060100
:100720005EEA430E08BF20EAD37070BDC4F10C042A
:10073000C4F1200500FA04F320FA05F001FA04F2EE
:1007400040EA020001F0004110EBD37041F10001DA
:100750005EEA430E08BF20EAD37070BDC4F12005E5
:1007600000FA05F24EEA020E20FA04F301FA05F24D
:1007700043EA020321FA04F001F0004121FA04F2F5
:1007800020EA020000EBD3705EEA430E08BF20EAC5
:10079000D37070BD94F0000F0FD101F000464000FF
:1007A00041EB010111F4801F08BF013CF7D041EA81
:1007B000060195F0000F18BF704703F00046520085
:1007C00043EB030313F4801F08BF013DF7D043EA56
:1007D0000603704794EA0C0F0CEA135518BF95EA0C
:1007E0000C0F0CD050EA410618BF52EA4306D1D193
:1007F00081EA030101F000414FF0000070BD50EAB2
:10080000410606BF1046194652EA430619D094EA3B
:100810000C0F02D150EA013613D195EA0C0F05D125
:1008200052EA03361CBF104619460AD181EA030179
:1008300001F0004141F0FE4141F470014FF0000031
:1008400070BD41F0FE4141F4780170BD70B54FF0CC
:10085000FF0C4CF4E06C1CEA11541DBF1CEA13554C
:1008600094EA0C0F95EA0C0F00F0A7F8A4EB05042E
:1008700081EA030E52EA03354FEA013100F0888025
:100880004FEA03334FF0805545EA131343EA1263EE
:100890004FEA022245EA111545EA10654FEA0026A3
:1008A0000EF000419D4208BF964244F1FD0404F55C
:1008B000407402D25B084FEA3202B61A65EB0305B8
:1008C0005B084FEA32024FF480104FF4002CB6EB75
:1008D000020E75EB030E22BFB61A754640EA0C00F5
:1008E0005B084FEA3202B6EB020E75EB030E22BF35
:1008F000B61A754640EA5C005B084FEA3202B6EB76
:10090000020E75EB030E22BFB61A754640EA9C0034
:100910005B084FEA3202B6EB020E75EB030E22BF04
:10092000B61A754640EADC0055EA060E18D04FEAC2
:10093000051545EA16754FEA06164FEAC30343EA62
:1009400052734FEAC2025FEA1C1CC0D111F4801F2F
:100950000BD141EA00014FF000004FF0004CB6E728
:1009600011F4801F04BF01430020B4F1FD0C88BFC7
:10097000BCF5E06F3FF6AFAEB5EB030C04BFB6EBD2
:10098000020C5FEA500C50F1000041EB045170BDC5
:100990000EF0004E4EEA113114EB5C04C2BFD4EBF2
:1009A0000C0541EA045170BD41F480114FF0000E76
:1009B000013C90E645EA060E8DE60CEA135594EAF2
:1009C0000C0F08BF95EA0C0F3FF43BAF94EA0C0FF5
:1009D0000AD150EA01347FF434AF95EA0C0F7FF46A
:1009E00025AF104619462CE795EA0C0F06D152EABE
:1009F00003353FF4FDAE1046194622E750EA4106A2
:100A000018BF52EA43067FF4C5AE50EA41047FF4B2
:100A10000DAF52EA43057FF4EBAE12E74FF0FF3C17
:100A200006E000BF4FF0010C02E000BF4FF0010CE8
:100A30004DF804CD4FEA410C7FEA6C5C4FEA430C61
:100A400018BF7FEA6C5C1BD001B050EA410C0CBFB0
:100A500052EA430C91EA030F02BF90EA020F002012
:100A6000704710F1000F91EA030F58BF994208BF79
:100A700090422CBFD8176FEAE37040F00100704736
:100A80004FEA410C7FEA6C5C02D150EA013C07D18D
:100A90004FEA430C7FEA6C5CD6D152EA033CD3D0D8
:100AA0005DF8040B704700BF8446104662468C46D2
:100AB0001946634600E000BF01B5FFF7B7FF002805
:100AC00048BF10F1000F01BD4DF808EDFFF7F4FF2E
:100AD0000CBF012000205DF808FB00BF4DF808EDB9
:100AE000FFF7EAFF34BF012000205DF808FB00BFDC
:100AF0004DF808EDFFF7E0FF94BF012000205DF8FE
:100B000008FB00BF4DF808EDFFF7CEFF94BF0120B2
:100B100000205DF808FB00BF4DF808EDFFF7C4FFAB
:100B200034BF012000205DF808FB00BF4FEA4102FE
:100B3000B2F1E04324BFB3F5001CDCF1FE5C0DD93B
:100B400001F0004C4FEAC0024CEA5070B2F1004F85
:100B500040EB830008BF20F00100704711F0804F88
:100B600021D113F13872BCBF01F00040704741F44D
:100B700080114FEA5252C2F11802C2F1200C10FA51
:100B80000CF320FA02F018BF40F001004FEAC12335
:100B90004FEAD32303FA0CFC40EA0C0023FA02F3D9
:100BA0004FEA4303CCE77FEA625307D150EA0133AF
:100BB0001EBF4FF0FE4040F44000704701F000407F
:100BC00040F0FE4040F40000704700BF80F000405D
:100BD00002E000BF81F0004142001FBF5FEA410315
:100BE00092EA030F7FEA226C7FEA236C6AD04FEA15
:100BF0001262D2EB1363C1BFD2184140484041405A
:100C0000B8BF5B42192B88BF704710F0004F40F40B
:100C1000000020F07F4018BF404211F0004F41F427
:100C2000000121F07F4118BF494292EA030F3FD0F3
:100C3000A2F1010241FA03FC10EB0C00C3F1200306
:100C400001FA03F100F0004302D5494260EB400095
:100C5000B0F5000F13D3B0F1807F06D340084FEA00
:100C6000310102F10102FE2A51D2B1F1004F40EBF5
:100C7000C25008BF20F0010040EA0300704749005D
:100C800040EB0000013A28BFB0F5000FEDD2B0FAFA
:100C900080FCACF1080CB2EB0C0200FA0CF0AABF1D
:100CA00000EBC25052421843BCBFD04018437047BB
:100CB00092F0000F81F4000106BF80F400000132C1
:100CC000013BB5E74FEA41037FEA226C18BF7FEA98
:100CD000236C21D092EA030F04D092F0000F08BFDA
:100CE0000846704790EA010F1CBF0020704712F0C1
:100CF0007F4F04D1400028BF40F00040704712F100
:100D000000723CBF00F50000704700F0004343F064
:100D1000FE4040F4000070477FEA226216BF08469A
:100D20007FEA23630146420206BF5FEA412390EA5D
:100D3000010F40F4800070474FF0000304E000BF53
:100D400010F0004348BF40425FEA000C08BF704704
:100D500043F0964301464FF000001CE050EA0102C8
:100D600008BF70474FF000030AE000BF50EA0102DD
:100D700008BF704711F0004302D5404261EB4101CA
:100D80005FEA010C02BF84460146002043F0B643EF
:100D900008BFA3F18053A3F50003BCFA8CF2083A14
:100DA000A3EBC25310DB01FA02FC634400FA02FC1D
:100DB000C2F12002BCF1004F20FA02F243EB020024
:100DC00008BF20F00100704702F1200201FA02FC86
:100DD000C2F1200250EA4C0021FA02F243EB020079
:100DE00008BF20EADC7070474FF0FF0C1CEAD052BD
:100DF0001EBF1CEAD15392EA0C0F93EA0C0F6FD07E
:100E00001A4480EA010C400218BF5FEA41211ED05B
:100E10004FF0006343EA501043EA5111A0FB013147
:100E20000CF00040B1F5000F3EBF490041EAD3711C
:100E30005B0040EA010062F17F02FD2A1DD8B3F198
:100E4000004F40EBC25008BF20F00100704790F007
:100E5000000F0CF0004C08BF49024CEA502040EA59
:100E600051207F3AC2BFD2F1FF0340EAC25070471F
:100E700040F400004FF00003013A5DDC12F1190F5D
:100E8000DCBF00F000407047C2F10002410021FACF
:100E900002F1C2F1200200FA02FC5FEA310040F1E7
:100EA000000053EA4C0308BF20EADC70704792F060
:100EB000000F00F0004C02BF400010F4000F013A98
:100EC000F9D040EA0C0093F0000F01F0004C02BF93
:100ED000490011F4000F013BF9D041EA0C018FE702
:100EE0000CEAD15392EA0C0F18BF93EA0C0F0AD008
:100EF00030F0004C18BF31F0004CD8D180EA01002E
:100F000000F00040704790F0000F17BF90F0004FC6
:100F1000084691F0000F91F0004F14D092EA0C0FA8
:100F200001D142020FD193EA0C0F03D14B0218BF3B
:100F3000084608D180EA010000F0004040F0FE4081
:100F400040F40000704740F0FE4040F4400070471D
:100F50004FF0FF0C1CEAD0521EBF1CEAD15392EA9C
:100F60000C0F93EA0C0F69D0A2EB030280EA010C8C
:100F700049024FEA402037D04FF0805343EA111125
:100F800043EA10130CF000408B4238BF5B0042F183
:100F90007D024FF4000C8B4224BF5B1A40EA0C0028
:100FA000B3EB510F24BFA3EB510340EA5C00B3EB5A
:100FB000910F24BFA3EB910340EA9C00B3EBD10F48
:100FC00024BFA3EBD10340EADC001B0118BF5FEA9A
:100FD0001C1CE0D1FD2A3FF650AF8B4240EBC250C3
:100FE00008BF20F0010070470CF0004C4CEA502084
:100FF0007F32C2BFD2F1FF0340EAC250704740F4D3
:1010000000004FF00003013A37E792F0000F00F0C4
:10101000004C02BF400010F4000F013AF9D040EA42
:101020000C0093F0000F01F0004C02BF490011F4D6
:10103000000F013BF9D041EA0C0195E70CEAD153CE
:1010400092EA0C0F08D142027FF47DAF93EA0C0FB5
:101050007FF470AF084676E793EA0C0F04D14B0299
:101060003FF44CAF08466EE730F0004C18BF31F04B
:10107000004CCAD130F000427FF45CAF31F0004345
:101080007FF43CAF5FE700BF4FF0FF3C06E000BFDE
:101090004FF0010C02E000BF4FF0010C4DF804CD01
:1010A0004FEA40024FEA41037FEA226C18BF7FEA11
:1010B000236C11D001B052EA530C18BF90EA010F13
:1010C00058BFB2EB030088BFC81738BF6FEAE170A2
:1010D00018BF40F0010070477FEA226C02D15FEA3E
:1010E000402C05D17FEA236CE4D15FEA412CE1D0AA
:1010F0005DF8040B704700BF844608466146FFE771
:101100000FB5FFF7C9FF002848BF10F1000F0FBD52
:101110004DF808EDFFF7F4FF0CBF012000205DF84B
:1011200008FB00BF4DF808EDFFF7EAFF34BF0120D0
:1011300000205DF808FB00BF4DF808EDFFF7E0FF69
:1011400094BF012000205DF808FB00BF4DF808EDBA
:10115000FFF7D2FF94BF012000205DF808FB00BF1D
:101160004DF808EDFFF7C8FF34BF012000205DF8FF
:1011700008FB00BF4FEA4002B2F1FE4F0FD34FF021
:101180009E03B3EB12620DD94FEA002343F00043F4
:1011900010F0004F23FA02F018BF404270474FF0A2
:1011A0000000704712F1610F01D1420205D110F029
:1011B000004008BF6FF0004070474FF000007047DC
:1011C00042000ED2B2F1FE4F0BD34FF09E03B3EBB1
:1011D000126209D44FEA002343F0004323FA02F0DD
:1011E00070474FF00000704712F1610F01D14202C9
:1011F00002D14FF0FF3070474FF00000704700BF42
:101200007BB972B90029BEBF00204FF0004106E053
:1012100008BF00281CBF6FF000414FF0FF3000F006
:1012200057B8ADF1080C6DE904CE002909DB002B9D
:101230001ADB00F07CF8DDF804E0DDE9022304B0FD
:101240007047404261EB4101002B1BDB00F06FF85F
:10125000DDF804E0DDE9022304B0404261EB410126
:10126000524263EB43037047524263EB430300F087
:101270005EF8DDF804E0DDE9022304B0404261EBF2
:1012800041017047524263EB430300F050F8DDF830
:1012900004E0DDE9022304B0524263EB43037047EC
:1012A00053B94AB9002908BF00281CBF4FF0FF31CD
:1012B0004FF0FF3000F00CB8ADF1080C6DE904CE32
:1012C00000F035F8DDF804E0DDE9022304B07047F2
:1012D000704700BF10F8012B11F8013B012A28BF0D
:1012E0009A42F7D0D01A7047034611F8012B03F841
:1012F000012B002AF9D17047034613F8012B002A6D
:10130000FBD1181A01387047430803F05533C01A4F
:1013100000F03333800800F03330184400EB101035
:101320004FF0013300F00F305843000E70472DE9A5
:10133000F0478C468E46089E154604461946002BFB
:1013400040F0D080724547D9B2FA82F74FB1C7F169
:1013500020030EFA07FC20FA03F3BD4043EA0C0C0D
:10136000BC404FEA154EA8B2BCFBFEF8230C0EFBA6
:1013700018CC08FB00F943EA0C43994528D9EB182F
:1013800008F1FF3204D2994502D9A8F102022B4498
:10139000A3EB0903A4B2B3FBFEFC0EFB1C330CFB56
:1013A00000F044EA0344A04214D92C190CF1FF3395
:1013B00004D2A04202D9ACF102032C44241A43EA1D
:1013C00002401EB1FC40002334607360BDE8F0872A
:1013D0004246DDE76346F1E7002A79D0B2FA82F3AC
:1013E000002B3FD01946C1F1200302FA01F52EFA75
:1013F00003F20EFA01FE20FA03F343EA0E034FEA6A
:10140000154E00FA01F4B2FBFEFCAFB20EFB1C203D
:101410001A0C0CFB07F842EA004290455AD9AA1868
:101420000CF1FF3004D2904502D9ACF102002A44FD
:10143000A2EB08029BB2B2FBFEFC0EFB1C220CFBD3
:1014400007F743EA02439F4246D9EB180CF1FF32FB
:1014500004D29F4202D9ACF102022B44DB1B42EAC8
:10146000004202E0AEEB020301224FEA154EAFB29A
:10147000B3FBFEFC200C0EFB1C330CFB07F840EA10
:10148000034398452AD9EB180CF1FF3004D2984554
:1014900002D9ACF102002B44A3EB0803A4B2B3FBC6
:1014A000FEFC0EFB1C330CFB07F744EA0344A74287
:1014B00016D92C190CF1FF3304D2A74202D9ACF192
:1014C00002032C44E41B43EA00400F46114678E730
:1014D0001F2188E76046ABE76246BFE76046DBE76F
:1014E0006346EFE7734506D916B9002108466DE754
:1014F000C6E9000EF9E7B3FA83F787B9734501D35C
:10150000824207D8841A6EEB030301209C461EB961
:1015100000215BE73846FAE7C6E9004CF8E7C7F177
:10152000200CBB4022FA0CF51D4320FA0CF12EFAD8
:101530000CF30EFA07FE41EA0E014FEA154900FAD4
:1015400007F4B3FBF9F81FFA85FE09FB18300B0C02
:1015500008FB0EFA43EA00439A4502FA07F240D923
:10156000EB1808F1FF3004D29A4502D9A8F1020025
:101570002B44A3EB0A0389B2B3FBF9F809FB183338
:1015800008FB0EFE41EA03418E452CD9691808F18B
:10159000FF3304D28E4502D9A8F10203294443EA5D
:1015A0000040A0FB0298A1EB0E014145CE46434608
:1015B00002D306D14C4504D2B9EB020E68EB050309
:1015C0000138002EA4D0B4EB0E0261EB030101FA46
:1015D0000CFC22FA07F34CEA0303F940C6E9003198
:1015E00096E74046C5E74346D9E700000000000003
:1015F0002DE9F04FE3B000254FF0000BBC4F1090E9
:10160000184604910DF1880ABA490DF584790C92B7
:101610000A93FFF7A5FD002814BF4FF010084FF004
:1016200020084046FFF78CFB06462846FFF788FB5C
:10163000B149FFF7D9FB3146FFF78AFC06900CF061
:10164000B5FF04464AF8040B06980CF0C7FD0C9948
:1016500049F8040B2046FFF7C7FB0499FFF7BCFAD3
:10166000A649FFF7C1FBA649FFF7B6FA594604465B
:10167000FFF758FD002840F07E8139462046FFF7ED
:101680006FFD002800F0758138463946FFF760FC91
:101690009C49FFF7A9FBFFF793FD12AB23F8150058
:1016A0000135A845BDD131460A98FFF79DFB01469B
:1016B00095484FF00008FFF74BFC944EFFF780FD74
:1016C00001288346924A38BF4FF0010B102D0B9032
:1016D000C1460CBF4FF4DC634FF45C63DFF834A207
:1016E0000D930CBFA0234FF4A0730E93642315FB3E
:1016F00003F30F93D2F8FC3043F08073C2F8FC3050
:101700000022336843F00103336000237468CDF88E
:1017100024805C44CDE90623CDE904234FF6FF7312
:10172000089312AB1098B9FBF5F705FB179733F840
:10173000171001F015FB0B9BA4EB0B02B3F5F06F38
:1017400094BF4FEA9B034FF4F0731A4473689B1ADB
:10175000002BFBDB0423CAF80030DAF8083023F052
:10176000004323F03F0343F00403CAF8083044F673
:101770002063DAF80020520701D4013BF9D1DAF8EE
:101780004000089B80B2834228BF03460893099B10
:10179000834238BF034609930E9B4B452FDCFFF76E
:1017A000CBFA5D49FFF720FB5C49FFF7D1FB5449B9
:1017B000FFF710FA5149FFF7CBFB22AB119053F81A
:1017C0002710FFF711FBFEF7BFFE02460B46DDE9CF
:1017D0000401FEF75BFD62AB03EB8707CDE9040173
:1017E00057F8801C1198FFF7FFFAFEF7ADFE02468E
:1017F0000B46DDE90601FEF749FDCDE906017368F8
:1018000009F10109A34207D973686FF000421B1B5D
:10181000934238BF08F101086FF000427368A34299
:1018200003D27368E31A9342F8D30D9B5C444B4593
:101830007FF477AFB8F1000F09D00A98FEF784FE65
:10184000CDF8008002460B4635480DF046FF35487E
:10185000DDE90634DDE90812CDE90234DDE90434BE
:10186000CDE900340DF039FF0F98FEF75BFE04461A
:101870000D46DDE9042310461946FEF707FD224612
:101880002B46FEF7E3FF80468946DDE90623104636
:101890001946FEF7FBFC22462B46FEF7D7FF4246D1
:1018A00006460F464B4640464946FEF7A5FE04460F
:1018B0000D4632463B4630463946FEF79DFE02460F
:1018C0000B4620462946FEF7E1FC0CF0DDFB044602
:1018D0000D4605A3D3E90023FFF700F920B302A5C5
:1018E000D5E9004520E000BF95D626E80B2E113E35
:1018F00000803B450000FA44DB0FC9400000204156
:101900000080BB4400FF7F47C0E1E44D001000E0D1
:1019100000ED00E00060025800404E4500F07F45B9
:10192000F5500108175101080C98FEF70DFE02460C
:101930000B4620462946FEF789FF00F09DF900225C
:10194000114BFEF759FEFFF7F1F86C9B4246394602
:1019500018604B46304600F08FF809A3D3E9002306
:10196000FEF74AFEFFF7E2F86D9B186063B0BDE832
:10197000F08F204689E6584687E600BFAFF3008027
:1019800026CF030DDCA54C400000344000000000D1
:101990002DE9F04704468AB08846174610F08BFEC2
:1019A0000A220023FFF77CFCB8F1010F06460D4622
:1019B00008D12B4ACDE90001082120460EF0AEFDEA
:1019C000002012E07F6827483946FFF783FC78B192
:1019D00039462548FFF77EFC50B120463B46234A56
:1019E00001210EF09BFD6FF004000AB0BDE8F08706
:1019F0003046294618A3D3E90023FFF701FC064629
:101A00000D46104619461A4A0023FFF7F9FB804697
:101A10000F46104619464EF660220023FFF7F0FBF2
:101A200082468946104619464FF47A720023FFF722
:101A3000E7FBCDE904A9CDE90601CDE9082308219A
:101A40000C4A2046CDE90287CDE900650EF066FD1F
:101A5000B6E700BFAFF30080005C26050000000081
:101A600048580108595801085C5801086558010890
:101A700080EE36007D5801082DE9F84F1746904654
:101A8000994623F000427B42DFF8E4A13B4342EA5F
:101A9000D373534504460D4609D8464221F000430E
:101AA000064343EAD67656458E46834608D94246D3
:101AB0004B4620462946FEF7E9FB04460D4616E054
:101AC00009F1404606F580163E4303D1BDE8F84FC4
:101AD00000F0DEBC4FEAA97606F002065BEA030BD3
:101AE00046EAD17617D1022E05D0032E0AD0204621
:101AF0002946BDE8F88F48A3D3E9002348A1D1E9DE
:101B00000001D8E744A3D3E9002347A1D1E90001AC
:101B1000FEF7BAFBD1E717430DD1BEF1000F3EA38C
:101B2000D3E9002303DA42A1D1E90001F0E742A1A1
:101B3000D1E90001BFE7524524D1934218D1022ECA
:101B400035A3D3E900230BD0032E0DD0012E03D0F3
:101B50003BA1D1E90001AEE73BA1D1E90001D7E704
:101B60003BA1D1E90001A6E73BA1D1E90001CFE704
:101B7000022EC0D0032EC5D0012E4FF0000448D055
:101B80000025B4E75345C8D09B1AB3F1747F4FEAE0
:101B900023521ADB32A3D3E9002327A1D1E90001A4
:101BA000FEF774FB04460D46012E21D0022E23D0F1
:101BB000002E9CD02CA3D3E9002320462946FEF713
:101BC00063FB17A3D3E90023A2E7B9F1000F01DA01
:101BD0003C320ADB42464B4620462946FEF736FE9B
:101BE00021F0004100F054FCDCE700240025DBE795
:101BF00005F100431D467AE71BA3D3E900232046E5
:101C00002946FEF741FB02460B4605A1D1E900013A
:101C10007EE74FF000456AE759F3F8C21F6EA50151
:101C2000182D4454FB210940182D4454FB2109C0B0
:101C3000182D4454FB21F9BF182D4454FB21F93FC2
:101C4000182D4454FB21E93F182D4454FB21E9BFD2
:101C5000D221337F7CD90240D221337F7CD902C08C
:101C6000075C143326A6913C075C143326A6A13CDE
:101C70000000F07F00000000B1F5801F2DE9F8435F
:101C800004460D460B4622DA21F00042024304D1FD
:101C9000BDE8F84301200CF0BFBC002903DABDE821
:101CA000F8430CF0C5BC304B0022FEF7A5FC6FF0EA
:101CB000350204460D460B462C498B4209DD22466F
:101CC0002B4620462946FEF7E1FABDE8F8830022BC
:101CD000F2E71815A0F2FF3010444FEAD07900EB7C
:101CE000D070C3F31308FEF71DFCC9F57F730333EF
:101CF00048EA035506460F462046294600F054FDA3
:101D000013A3D3E900238046894630463946FEF7BF
:101D100073FC11A3D3E9002304460D46404649460F
:101D2000FEF76AFC02460B4620462946FEF7AEFA4D
:101D30000BA3D3E9002304460D4630463946FEF78F
:101D40005BFC02460B4620462946BCE7AFF3008009
:101D5000362BF111F3FE593D0EE526157BCBDB3F0B
:101D600000609F501344D33F00005043FFFFEF7FBC
:101D70002DE9F04F31F0004387B081460E4607460B
:101D80000C460DD180F480077F0017F5000F40F25C
:101D9000528331464846FEF71FFF07B0BDE8F08F7B
:101DA00020F00048B8F1FF4F014602D8B3F1FF4FD1
:101DB00008D9B7F17E5FECD184F48004640014F597
:101DC000000FE4E7002823DAB3F1974F80F038835F
:101DD000B3F17E5F36D3DA15C2F1960243FA02F50B
:101DE00005FA02F29A4225D105F00105C5F1020576
:101DF000B3F17E5F27D1002C7EDA00214846FFF741
:101E000087F9C8B1F80F07B0BDE8F04F0CF07EBC01
:101E1000B3F1FF4F0ED1B8F17E5F00F00C8304D90F
:101E2000002C80F20B830020B7E7002CFBDA06F1D0
:101E30000040B2E70025DBE749464FF07E50FFF750
:101E400087F8AAE70025B4F1804F424640F0FE82B1
:101E5000B8F1BF4F20D2B8F1D05F04D94946484607
:101E6000FEF7C2FF99E729F00040B8F1000F40D01B
:101E7000F90F01390391294324D0B3F19A4F40F26D
:101E8000D780654B984539D8002C3CDA002007B044
:101E9000BDE8F04F0CF032BC27F0404CBCF17E5F47
:101EA00029F000401AD1002C04DA01464FF07E5090
:101EB000FFF74EF8002FBFF670AFA8F17E5858EA32
:101EC000050805D1484607B0BDE8F04F0CF026BC28
:101ED000012D7FF462AF00F100405EE7B8F1000F22
:101EE000C6D1002C05DA17B16B1E5942594108467C
:101EF00089E7012D7FF451AF48464EE7474B98459F
:101F000007D9002CC2DC002007B0BDE8F04F10F06C
:101F100019BF4FF07E51FEF75DFE41490746FEF7BF
:101F200063FF404981463846FEF75EFF804638A190
:101F3000D1E90001FEF7FAFD4FF07A5182463846AA
:101F4000FEF752FF01465046FEF744FE3946FEF7C3
:101F50004BFF01464FF07C50FEF73CFE394682466F
:101F60003846FEF741FF01465046FEF73DFF2E4939
:101F7000FEF73AFF01464046FEF72CFE014680463A
:101F80004846FEF729FE20F47F6727F00F074946F1
:101F90003846FEF71FFE01464046FEF71BFE039B38
:101FA000013D6FF30B041D438046214630460CBFB4
:101FB0001E4D4FF07E55FEF70DFE3946FEF714FF1D
:101FC000314681464046FEF70FFF01464846FEF780
:101FD00003FE214606463846FEF706FF0146074641
:101FE0003046FEF7F9FD00280446804620F0004305
:101FF00040F34481B3F1864F40F22D810021284601
:10200000FFF790F8003818BF012040E7AFF30080D9
:10201000E13D55555555D53FF3FF7F3F0700803FC4
:1020200000AAB83F70A5EC363BAAB83F000080BFBD
:1020300017F0FF4F40F00B814FF09741FEF7D4FEB1
:102040006FF017010246D3157F3B0B44964902936C
:10205000C2F316028A4242F07E5308DD93498A4257
:1020600040F3F780029A01320292A3F500030027A1
:102070008F4A049352F827B0184659469A46FEF7FD
:10208000A9FD514681465846FEF7A6FD01464FF090
:102090007E50FEF75DFF014605904846FEF7A4FE20
:1020A0000190019B83496FF30B039846049B01EA5F
:1020B000630343F0005303F5800303EB47534146AA
:1020C00018460493FEF790FE01464846FEF782FD4F
:1020D000049B814659461846FEF77CFD0146504652
:1020E000FEF778FD4146FEF77FFE01464846FEF7C3
:1020F00071FD059A1146FEF777FE01998346084661
:10210000FEF772FE6C498146FEF76EFE6B49FEF7E4
:1021100063FD4946FEF768FE6949FEF75DFD4946E5
:10212000FEF762FE6749FEF757FD4946FEF75CFE83
:102130006549FEF751FD4946FEF756FE6349FEF735
:102140004BFD494682464846FEF74EFE0146504644
:10215000FEF74AFE414681460198FEF73DFD59468D
:10216000FEF742FE4946FEF737FD414682464046AD
:10217000FEF73AFE56490490FEF72EFD5146FEF753
:102180002BFD20F47F6929F00F0941464846FEF7F0
:102190002BFE4F4980464846FEF71CFD0499FEF78A
:1021A00019FD01465046FEF715FD0199FEF71CFE8C
:1021B000494682465846FEF717FE01465046FEF74E
:1021C0000BFD834601464046FEF706FD20F47F697D
:1021D00029F00F093F494846FEF706FE4146824670
:1021E0004846FEF7F7FC01465846FEF7F3FC3A492D
:1021F000FEF7FAFD394980464846FEF7F5FD0146EF
:102200004046FEF7E9FC364B53F82710FEF7E4FC96
:1022100080460298FEF794FD324B53F827B0814672
:1022200041465046FEF7D8FC5946FEF7D5FC4946D4
:10223000FEF7D2FC20F47F6727F00F0749463846A7
:10224000FEF7C8FC5946FEF7C5FC5146A1E6002141
:10225000F9E601270CE74BD123493046FEF7BCFCD9
:10226000394681462046FEF7B5FC01464846FEF752
:1022700077FF00287FF4C2AE86233EE01B4A9342DC
:1022800007D900212846FEF74DFF003818BF01206E
:102290003AE62DD13946FEF79DFC3146FEF756FF52
:1022A0000028E9D0EDE700BF71C41C00D6B35D0083
:1022B0004C4A010800F0FFDF42F1533E55326C3EBC
:1022C00005A38B3EABAAAA3EB76DDB3E9A99193F98
:1022D000000040400040763F4F38763FC623F6B8B6
:1022E0003C4A0108444A01083CAA3833000016431E
:1022F000B3F17C5F40F29B80DB157E3B4FF4000422
:102300001C414444C4F3C75357497F3B1941214002
:10231000C4F31604C3F1170344F400041C41B8F1DC
:10232000000F3846B8BF6442FEF754FC07463146FA
:102330003846FEF751FC20F47F6929F00F094B491C
:102340004846FEF751FD394680464846FEF742FCB6
:1023500001463046FEF73EFC4549FEF745FD45493E
:1023600006464846FEF740FD01463046FEF734FC7F
:10237000074601464046FEF72FFC41460646FEF75B
:1023800029FC01463846FEF725FC3146804630469A
:10239000FEF72AFD38490746FEF726FD3749FEF7C6
:1023A00019FC3946FEF720FD3549FEF715FC394684
:1023B000FEF71AFD3349FEF70DFC3946FEF714FD12
:1023C0003149FEF709FC3946FEF70EFD014630465D
:1023D000FEF700FC074601463046FEF705FD4FF0CC
:1023E000804181463846FEF7F5FB01464846FEF738
:1023F000AFFD414607463046FEF7F6FC4146FEF784
:10240000EBFB01463846FEF7E5FB3146FEF7E2FB03
:1024100001464FF07E50FEF7DDFB00EBC453B3F5F1
:10242000000F06DA21460CF00BF9294618E50024C6
:102430007DE71846F9E74FF07E50AEE43046ACE455
:10244000B3F1FF4F3FF4E7AC42460225B4F17C5FA5
:102450007FF422AD002FFFF61FAD484607B0BDE860
:10246000F04F10F003BD00BF000080FF0072313F4D
:102470001872313F8CBEBF354CBB31330EEADD35AF
:1024800055B38A38610B363BABAA2A3E00000000E8
:10249000BB4A2DE9F84F21F00043934204460D4614
:1024A0008B4620D9B74A934201D80CD158B1224665
:1024B0002B4620462946FDF7E9FE04460D462046F8
:1024C0002946BDE8F88FBBF1000F91A3D3E90023A3
:1024D00003DD91A1D1E90001EDE791A1D1E900016E
:1024E000FDF7D2FEE9E7A84A934200F28580A2F107
:1024F000DE729342E3D94FF0FF3A22462B46204644
:102500002946FEF779F802460B4680468946FEF7D3
:1025100073F885A3D3E9002306460F46FEF76CF84F
:1025200083A3D3E90023FDF7B1FE32463B46FEF715
:1025300063F881A3D3E90023FDF7A8FE32463B46AA
:10254000FEF75AF87EA3D3E90023FDF79FFE32463B
:102550003B46FEF751F87CA3D3E90023FDF796FE36
:1025600032463B46FEF748F879A3D3E90023FDF74E
:102570008DFE42464B46FEF73FF877A3D3E9002392
:102580008046894630463946FEF736F874A3D3E9CB
:102590000023FDF779FE32463B46FEF72DF872A385
:1025A000D3E90023FDF770FE32463B46FEF724F8E0
:1025B0006FA3D3E90023FDF767FE32463B46FEF7E3
:1025C0001BF86DA3D3E90023FDF75EFE32463B46C0
:1025D000FEF712F802460B4640464946FDF756FE06
:1025E00022462B46FEF708F8BAF1FF3F02460B469B
:1025F0006BD12046294673E7644A9342064621F090
:10260000004738D8A2F5502293421CD802463B46D8
:102610003946FDF73BFE5E4B0022FDF735FE0022FA
:1026200004460D464FF0804330463946FDF72EFEF6
:1026300002460B4620462946FEF708F94FF0000AED
:1026400004460D4659E7524B00223946FDF71CFE61
:102650004F4B04460D46002230463946FDF716FE24
:1026600002460B4620462946FEF7F0F84FF0010AD5
:1026700004460D4641E7474A93421BD2464B00228F
:102680003946FDF701FE444B04460D460022304614
:102690003946FDF7B1FF3E4B0022FDF7F7FD02463C
:1026A0000B4620462946FEF7D1F84FF0020A0446B1
:1026B0000D4622E7024639493B460020FEF7C6F8A0
:1026C0004FF0030A04460D4617E7354B354E03EB32
:1026D000CA03D3E90023FDF7D7FD22462B46FDF7B9
:1026E000D3FD06EBCA0602460B46D6E90001FDF70C
:1026F000CBFDBBF1000FBCBF024601F10043044615
:102700000D46BCBF14461D46D9E600BFAFF300809E
:10271000075C143326A6913C182D4454FB21F93F45
:10272000182D4454FB21F9BF11DA22E33AAD903F52
:10273000EB0D76244B7BA93F513DD0A0660DB13FF8
:102740006E204CC5CD45B73FFF8300922449C23F60
:102750000D5555555555D53F2F6C6A2C44B4A2BF25
:102760009AFDDE522DDEAD3F6D9A74AFF2B0B33FED
:10277000711623FEC671BC3FC4EB98999999C93F65
:10278000FFFF0F440000F07FFFFFDB3FFFFFF23F42
:102790000000F03F008003400000F83F0000F0BF61
:1027A000F83C0108183D01082DE9F04FB1F5801FF4
:1027B00087B0074688460D4625DA21F000430343DB
:1027C00005D1012007B0BDE8F04F0BF025BF00296F
:1027D00004DA07B0BDE8F04F0BF02ABFC64B002269
:1027E000FDF70AFF88460D4607466FF03501C348DE
:1027F00085420ADD3A46434638464146FDF746FDE6
:1028000007B0BDE8F08F0021F1E72C15A4F2FF34EA
:10281000C5F313050C4405F5152101F6647101F4A7
:10282000801686F07F5181F4401141EA0503194674
:102830000022B34B3846FDF727FDAB1CC3F313034F
:10284000022B04EB165482468B464FF0000253DCF9
:102850000023FEF739F9D0B1002C00F0208120468A
:10286000FDF760FE90A3D3E9002306460F46FDF76F
:10287000C3FE8FA3D3E9002304460D4630463946F4
:10288000FDF7BAFE02460B4620462946B6E78AA364
:10289000D3E9002350465946FDF7AEFE02460B46EB
:1028A00000209849FDF7F0FC524606460F465B466D
:1028B00050465946FDF7A0FE02460B4630463946C3
:1028C000FDF79AFE06460F4614B932463B46A0E095
:1028D0002046FDF727FE74A3D3E9002380468946EE
:1028E000FDF78AFE72A3D3E9002304460D46404655
:1028F0004946FDF781FEA5E04FF08043FDF7C6FC99
:1029000002460B4650465946FDF7A0FFCDE90001AF
:102910002046FDF707FEDDE90023CDE90201104660
:102920001946FDF769FE02460B46CDE90423FDF783
:1029300063FE63A3D3E9002380468946FDF75CFE6E
:1029400061A3D3E90023FDF7A1FC42464B46FDF706
:1029500053FE5FA3D3E90023FDF798FC42464B46A4
:10296000FDF74AFE5CA3D3E90023FDF78FFCDDE908
:102970000423FDF741FE5AA3D3E90023CDE9040166
:1029800040464946FDF738FE57A3D3E90023FDF73B
:102990007DFC42464B46FDF72FFE55A3D3E90023AD
:1029A000FDF774FC42464B46FDF726FEA5F5C22610
:1029B00002460B46C5F5D725DDE90401FDF766FCA7
:1029C000A6F27A4651353543002D8046894648DDCA
:1029D0004C4B002250465946FDF70EFE52465B46D0
:1029E000FDF70AFE02460B4606460F46404649469C
:1029F000FDF74CFCDDE90023FDF7FEFD804689462E
:102A000064B902460B4630463946FDF73DFC0246A6
:102A10000B4650465946FDF737FCF1E622A3D3E9B1
:102A20000023DDE90201FDF7E7FD21A3D3E900233F
:102A300004460D46DDE90201FDF7DEFD42464B4648
:102A4000FDF724FC02460B4630463946FDF71CFCD8
:102A500052465B46FDF718FC02460B4620462946C7
:102A6000D9E702460B4650465946FDF70DFCDDE915
:102A70000023FDF7C1FD06460F46002C3FF425AFAD
:102A800009A3D3E90023DDE90201FDF7B5FD08A3A1
:102A9000D3E9002304460D46DDE9020129E70020C1
:102AA0000021ADE6AFF300800000E0FE422EE63FDD
:102AB000763C7935EF39EA3D555555555555D53F55
:102AC00044523EDF12F1C23FDE03CB966446C73F5D
:102AD000599322942449D23F935555555555E53F76
:102AE0009FC678D0099AC33FAF788E1DC571CC3F81
:102AF00004FA97999999D93F00005043FFFFEF7F5F
:102B00000000F03F0000E03F30F000422DE9F84FB8
:102B10000146034604D1BDE8F84F01200BF0F6BD95
:102B2000002803DABDE8F84F0BF0F8BDB0F1FF4F15
:102B300003DBFEF751F8BDE8F88FB0F5000F35DA8A
:102B40004FF09841FEF750F96FF018020346C3F3B7
:102B50001604DE15764B234403F400007F3E80F01C
:102B60007E5016444FF07E51204306EBD356FEF7BD
:102B700031F8704B04F10F0213400546002B3ED193
:102B80000021FEF7C5FA98B1002E00F0C88030464B
:102B9000FEF7D6F868490546FEF726F96749044668
:102BA0002846FEF721F901462046C2E70022CEE77B
:102BB0005DA1D1E90001FDF7B9FF2946FEF714F93F
:102BC00001464FF07C50FEF705F82946044628469A
:102BD000FEF70AF901462046FEF706F904460EB94B
:102BE00021466FE03046FEF7ABF853490746FEF743
:102BF000FBF8524906463846FEF7F6F872E04FF009
:102C00008041FDF7E9FF01462846FEF7A1F981461C
:102C10003046FEF795F8494680464846FEF7E4F808
:102C200001468246FEF7E0F84549DFF818B107464D
:102C3000FEF7DAF84449FDF7CFFF3946FEF7D4F83E
:102C40004249FDF7C9FF3946FEF7CEF84049FDF786
:102C5000C3FF5146FEF7C8F83E4982463846FEF7A4
:102C6000C3F83D49FDF7B8FF3946FEF7BDF83B49CB
:102C7000FDF7B2FF3946FEF7B7F801465046FDF7BB
:102C8000ABFFC4F55713A34403F5227343EA0B03C8
:102C9000002B074630DD4FF07C512846FEF7A4F8A4
:102CA0002946FEF7A1F8014604463846FDF794FF91
:102CB0004946FEF799F8074646B901462046FDF712
:102CC00089FF01462846FDF785FF34E71A4940464B
:102CD000FEF78AF8194906464046FEF785F8394658
:102CE000FDF77AFF01462046FDF774FF2946FDF700
:102CF00071FF01463046E6E701462846FDF76AFFC8
:102D00004946FEF771F80446002E3FF469AF0A49C0
:102D10004046FEF769F80949064640466CE7002040
:102D200009E700BFAFF30080555555555555D53FC0
:102D300020FB4A00F0FF7F008071313FD1F7173749
:102D40009788173E305CCFFF25333A3E2549923EA7
:102D5000ABAA2A3F4FD01C3E298E633ECDCCCC3E41
:102D600010B5114B08304FF480140A0AC0B29C61B0
:102D7000C9B20E4B83F8200083F8202083F820107E
:102D80001A6842F400721A6044F620625969090711
:102D900001D4013AFAD19A6942F008029A611022EC
:102DA000014B9A6110BD00BF000002580030014085
:102DB0002DE9F043144689B00A22002106466068D6
:102DC00009F0BCFF07460021A06809F0C9FD072FE4
:102DD00080460AD96FF015052D4A012130460DF0C5
:102DE0009DFB284609B0BDE8F0832A49FDF7FCFFAA
:102DF0002949FDF7F1FE00210446FEF793F988BB4F
:102E000026492046FEF7ACF900B1244C2349204660
:102E1000FEF79EF82249FDB2FDF7E6FFFEF7D0F976
:102E20002946024681461F480CF039F800281BDA73
:102E3000002307A91B488DF81E3010238DF81C5065
:102E40008DF81D300CF02EF829464A4615480CF036
:102E500026F8051E08DA2B46134A012130460DF0EC
:102E60005DFBBEE70024D1E720460025FDF76CFBA3
:102E7000CDF80890CDE904014046FDF765FB3B46DF
:102E80000A4ACDE90001082130460DF047FBA8E7CA
:102E9000444E0108000020410080BB4400803B45B7
:102EA00000FF7F475C320108624E0108864E010830
:102EB00030B51F4BBDB00D4610221C5C01AB00218C
:102EC00018460FF0E9FC012363220590A3400AACE9
:102ED000ADF81020C82206930C230794CDE90823EF
:102EE000144805A983685B68984700281DDB002308
:102EF0001846194634F9022B0133101841EBE271E0
:102F0000642BF7D1FDF732FF0B49FEF721F80B498F
:102F1000FDF76AFF0A49FEF71BF80A49FDF75AFE5A
:102F20000949FEF715F8286000203DB030BD00BF0C
:102F30005D790108FC3101080000C84200404E459F
:102F400000F07F450080BB440000204101297FB58F
:102F5000054613462BD90A220021586809F0EEFED7
:102F60000728064609D96FF01504214A0121284691
:102F70000DF0D4FA204604B070BD03A9C0B2FFF72B
:102F800097FF044630B103461A4A012128460DF046
:102F9000C5FAEFE70398FDF7D7FA3346164ACDE9AD
:102FA0000001082128460DF0B9FA0024E2E70024C8
:102FB000124A08210DF0B2FA03A9E0B2FFF778FF38
:102FC00048B123460E4A082128460DF0A7FA0134DD
:102FD000082CF1D1E9E70398FDF7B6FA2346094A30
:102FE000CDE90001082128460DF098FAEFE700BF6F
:102FF000444E0108BD4E0108D74E0108034F010899
:103000002F4F0108454F01082DE9F04F154691B0AB
:103010000A2200210746686809F090FE00218246D6
:10302000A86809F09DFC00210446E86809F098FCB6
:1030300000210646286909F093FC0A220990002124
:10304000686909F07BFEBAF1070F05460AD9744A90
:103050006FF01505012138460DF060FA284611B0D1
:10306000BDE8F08F00210998FEF766F808B16D4AB7
:10307000EEE731462046FEF75FF800285FD04FF0BC
:103080007E5909984FF000080695FDF75DFA25EA8C
:10309000E575CDE904013046FDF756FACDE90201A8
:1030A0002046FDF751FA53465F4ACDE90001082159
:1030B00038460DF033FA0A23A5FB0332CDE90A3274
:1030C0005A492046FDF790FE5949FDF785FD4146D6
:1030D0000546FEF727F8002836D156492846FEF760
:1030E0003FF878B3534853495FFA8AFBFDF730FF46
:1030F0005149FDF779FEFEF763F859460246054649
:103100004E480BF0CCFE002820DA00230FA94B48D4
:103110008DF83E3010238DF83CB08DF83D300BF02B
:10312000C1FE2A46594645480BF0B9FE051E0DDA88
:103130002B46434A012138460DF0F0F98EE7DFF8BF
:1031400004919EE72846CEE74046CCE7DDE90A0138
:103150000FF049FA0FA95846CDF83C80FFF7A8FEBA
:1031600005462046FDF7F0F902460B4645B1CDE98C
:1031700000230121344A384602950DF0CFF96DE75E
:103180000F98CDE90C23FDF7DFF9DDE90C23CDE93C
:103190000201CDE90023082138462C4A0DF0BEF982
:1031A00041464846FDF7DCFFE0B131462046FDF7D9
:1031B000CDFF00282DD109994846FDF715FE01469F
:1031C0002046FDF709FD414604464846FDF7C8FF85
:1031D00098B121463046FDF7A5FF00283FF470AFB7
:1031E00034466DE741464846FDF79CFF0028E2D093
:1031F00031462046FDF7A0FFDBE741464846FDF794
:1032000091FF00283FF45CAF21463046FDF7A8FF50
:10321000E3E70F4A082138460DF080F91EE700BFAA
:10322000444E0108554F01086C4F01080000204131
:103230000080BB4400803B4500FF7F475C320108B3
:10324000B14F0108000080BFCC4F0108FA4F0108C0
:10325000225001080D4A9368D80716D5936823F0C9
:10326000004323F03F0343F01003936041F288339F
:103270009168C90601D5013BFAD1936823F0004358
:1032800023F03F0343F0020393607047006002584D
:1032900038B5414C0546A368DA0003D4A36843F06F
:1032A0008053A36032200EF0E9FF0123E269AB40B6
:1032B0001343E361A368DB071DD5A368364A23F0F7
:1032C000004323F03F0343F01003A360334B9168A6
:1032D000C80601D5013BFAD1936823F0004323F0DF
:1032E0003F0343F0020393602C4B2B4A9168C907BC
:1032F00001D5013BFAD1284C294BA268134043F079
:10330000004343F48033A360264BA268002A04DA0A
:10331000013BFAD124480CF0E0F9236B072023F09D
:103320000F032363214B216B53F8253021F4F861FF
:103330001F4D1A0D02F4F8620A43D90DC3F304536A
:10334000226301F00401E268984022F47E62E260A8
:103350004A5922EA0002022000FA03F313434B51B8
:10336000E36823F00303E36001232360A36823F0F1
:10337000004323F03F0343F00103A360094B064CD5
:103380002268D20704D4013BFAD10A480CF0A5F90F
:103390000123236038BD00BF00600258A0860100F1
:1033A000C0FFFE3F404B4C0050500108083E010852
:1033B0001460025833500108134600210A222DE9F7
:1033C000F043064687B0586809F0B8FC072809D9C9
:1033D0003046244A01210DF0A1F86FF0150007B026
:1033E000BDE8F083204B0A24204D4FF00408204F05
:1033F000185CFFF74DFFC5F8008044F62062AB680B
:1034000023F0004323F03F0343F00403AB602B6839
:103410005B0701D4013AFAD12B68286C1FFA80F9B6
:103420004846CDE90423FDF787FC3946FDF7DCFC6F
:103430001049FDF78DFDFDF787F84B460E4ACDF894
:103440000090CDE90201082130460DF067F84FF4F5
:103450007A7000210FF0C7F8013CCCD1FFF7FAFEDB
:103460002046BCE7444E01085D790108006002581F
:1034700000404E4500F07F45735001081C4B82B060
:10348000D3F8F02042F48052C3F8F020D3F8F030A3
:1034900003F480530193019B164B1A68D20716D58B
:1034A0001A6842F480621A6041F28832596908054C
:1034B00001D4013AFAD11A6822F001021A6041F2ED
:1034C00088330C4A1168C90701D5013BFAD1094B71
:1034D0004FF0FF329A615A686FF30F0242F0030215
:1034E0005A601A6842F001021A6002B0704700BFC9
:1034F0000044025800300140074B1A68D0070AD533
:103500001A6822F001021A6041F288321968C9076C
:1035100001D5013AFAD17047003001402DE9F74F4B
:10352000154607460A2200216868002609F006FCB5
:103530000A225FFA80F80021A86809F0FFFB0A223E
:103540001FFA80F90021E86809F0F8FB4C461FFAE1
:1035500080FA4A464146194855460BF0A0FCFFF751
:103560008DFF4346164A08213846CDE9009A0CF0F3
:10357000D5FFF30740464BBFAB46A34651464946ED
:10358000FFF7EEFB33460F4A08213846CDF800B06E
:103590000CF0C4FF013642F2107000210FF023F846
:1035A000142EE6D1FFF7A8FF3846074A08210CF091
:1035B000B5FF002003B0BDE8F08F00BF5C3201080A
:1035C000A2500108D9500108EE5001082DE9F04F32
:1035D000154691B00A2200210646686809F0AEFB44
:1035E00000210446A86809F0BBF900210B90E868A7
:1035F00009F0B6F900218146286909F0B1F90021E6
:103600008046686909F0ACF900210746A86909F00D
:10361000A7F9072C824609D9654A304601210CF0EA
:103620007DFF6FF0150011B0BDE8F08F0021484616
:10363000FDF782FD08B15F4AEFE700214046FDF744
:103640007BFD20B939464046FDF78AFD08B15A4A4C
:10365000E3E700215046FDF76FFD08B1574ADCE76C
:10366000574B504613F804B0FCF76EFFCDE9080144
:103670003846FCF769FFCDE906014046FCF764FFD8
:10368000CDE904014846FCF75FFFCDE902010B9844
:10369000FCF75AFF23464B4AE4B2CDE9000108216A
:1036A00030460CF03BFF484A082130460CF036FF0C
:1036B00046490B98FDF798FB4549FDF78DFA002127
:1036C0000546FDF72FFD00283FD142492846FDF76A
:1036D00047FD002837D03F483E49FDF739FC3E49B9
:1036E000FDF782FBFDF76CFD2146024605463B488F
:1036F0000BF0D5FBFFF7C2FE5846FFF7C9FD404669
:103700000AF0A0FD804638460AF09CFD51460C9018
:103710004FF07E50FDF71CFCDFF8B0A08346304927
:103720000C98FDF759FA4146FDF710FD78B9A9B29A
:103730000B902046FFF714FBFFF7DEFEFFF78AFD34
:103740000B9B18466FE72846C6E70020C4E74146B2
:103750005046FEF70DFB01460D903846FDF7E2FCA2
:103760000D9B00B13B460FAA0B9920460D93019289
:103770000EAA00924A46FDF73BFF0F98FCF7E4FEC5
:10378000CDE904010E98FCF7DFFE0D9BCDE90201A7
:103790001846FCF7D9FE134ACDE90001082130464E
:1037A0000CF0BCFE40465946FDF716FA8046B6E7D7
:1037B000444E010847510108615101087A5101083E
:1037C0005D79010899510108E65101080000204186
:1037D0000080BB4400803B4500FF7F475C3201080E
:1037E00017B7D138015201082DE9F341384C23684D
:1037F00003F00703022B04D9364A032120460CF0BC
:1038000099FB35480EF06AFD58B923685B0704D070
:10381000324A01212E480CF08DFB002002B0BDE899
:10382000F0812F480EF05AFD0028EED0002500232D
:10383000694629488DF8023010238DF800508DF824
:1038400001300BF02FFB002809DA236813F0060F74
:1038500005D0244A2B4602211D480CF074FB01358B
:10386000082DE4D11E4B00251F4ED3F8088040F2EE
:10387000094316F8017B00930023ADF8043067F389
:1038800004038DF8043016486946D8F8003098478C
:10389000002809DA236813F0060F05D0134A3B46C7
:1038A00002210B480CF04FFB0135082DDFD12368B6
:1038B00003F00703022B04D90D4A032104480CF03E
:1038C00039FB4FF0FF314FF0FF300EF08CFEF8E780
:1038D000F0020024115201085C3201083F52010835
:1038E000FC3101085A5201085D7901087052010843
:1038F000865201082DE9F041884600AF002900F00A
:1039000084800568012228460BF015FB0146044619
:1039100028460BF0CAFA10EA020319D13C480268A3
:1039200056070DD06E4688B06A463A49CDE905186B
:10393000032142F8101F4FF4C25101F08DF8B54633
:10394000002383F31188BFF36F8F0423184602DF2F
:10395000214628460BF0BFFA261800222846314699
:103960000BF0A3FA361AB4421BD029480368590752
:103970000FD06E4688B06946274BCDE90538032342
:1039800041F8103F13460A464FF4C25101F064F863
:10399000B546002383F31188BFF36F8F04231846C5
:1039A00002DF0022214628460BF09BFA21460BF04D
:1039B00092FA26180122284631460BF076FAC20701
:1039C00008D4314628460BF0F8FA324621462846FC
:1039D0000BF06AFB0022214628460BF066FA261AF5
:1039E0000122284631460BF060FAC30709D431465C
:1039F00028460BF0E2FA22463446314628460BF0C0
:103A000053FB214628460BF06DFBBD46BDE8F08117
:103A1000FC0200245A54010831540108024808B538
:103A20000BF05BFE002008BD875401080E4A0346D8
:103A3000904202D30D4A904211D30D4A22B19342D3
:103A400002D30C4A93420AD30B4A52B10B48834229
:103A500034BF01200020934238BF0020704701206E
:103A600070471046704700BF142F0108D87901082D
:103A70000000000000000000000000000000000046
:103A80002DE9F04F9BB004468B4600AFD7F890A0CD
:103A9000FA637B6349B903784678807800EB83004A
:103AA00020445E4520D8A0EB040B0AF00103A67861
:103AB000FB62002E0CBF4FF000090AF00109E37809
:103AC0003B6313B11AF0020F17D1B9F1000F14D1F3
:103AD000FB6B1BB17A6B5946204698475D462846DA
:103AE0006C37BD46BDE8F08F451C0BF1010B284635
:103AF000FDF702FC01302844D3E7CAF3C003FB61A1
:103B00002378BB629B00BB6163683B62BB6A04EBCA
:103B10008301FB6B002B40F082805D460E44B9F1BF
:103B2000000F1DD08B469946DFF8B0821BF8013B91
:103B300054F82300002808BF4046FDF7DDFBD7F806
:103B4000943001304BB1D7F898304B4582BFD7F84D
:103B5000943023F8190009F101095E450544E5D1C7
:103B60001AF0050F0AF002034FF000080CBF4FF0E7
:103B7000020B4FF0010BFB633B6B9845AFD27378A0
:103B8000023654F823A05046FFF750FFFA69034667
:103B90002AB3B86316F8021C386A0BF04FFDBB6BF2
:103BA000E8B18F48036813F0060F14D0EA468AB0D4
:103BB0006A468C4B05933B6ACDE906314FF400739E
:103BC000ADF82030884B42F8103F00234FF41251DB
:103BD00000F042FFD546023D08F10108CCE723B1D1
:103BE000FB6A2BB9A5EB0B05F6E7FB6B002BF3D0BB
:103BF0007A48BAF1000F18BF5046FDF77DFBD7F8A1
:103C0000943053B1D7F8983099453FBF431CD7F84B
:103C1000942022F8193009F101090544DCE7B9F1D3
:103C2000000F6CD0102E334607F148004FF000080B
:103C300028BF1023BB6397F83890BA6B79620EF0F7
:103C400004FE796A00228B197A620AF002027B6113
:103C500002333A610AF00402FA607A6A396B8A42E6
:103C600062D363781AF0020FF96A7B624B440CBF8F
:103C70004FEA58020022DBB2002940F0AC801AF073
:103C8000040F14BF4146002163702046A170E2700A
:103C9000B9697A6BFB6B9847051EFFF620AFBB6ACC
:103CA0004146A67007F1580023707B6A7A6B6370F7
:103CB0003B6BE370FB6B9847061EC0F2C9803A6B02
:103CC000BB69386B03EB4203ABEB0301D7E90D2370
:103CD000C91A7B6903EB4000FB6B98470028C0F2D0
:103CE000B9802E444FF0000807F1480A3518C8453E
:103CF0007CD300217A6BFB6B08469847EFE666B1F0
:103D00001AF0040F0DD0102E334607F1580028BFCB
:103D10001023BB6397F838808FE7B046B146BE6387
:103D200090E7C846BE638DE713F8015C13F8021CE8
:103D300054F82500BB60FFF779FE0246F869BB68BE
:103D400038B1386AC7E901320BF078FCD7E90132A3
:103D500010BB32B3FA6A72B1B9F10F0F1CD809F176
:103D6000280107F1400009F1010201445FFA82F9DC
:103D700001F8205C10E0FA6872B1B8F10F0F0BD8AF
:103D800008F1280107F1400008F1010201EB0008E9
:103D900008F8105C5FFA82F87A6A023301327A62BC
:103DA0005BE73A69002AD7D1B8F10F0FF4D808F1D0
:103DB000280007F1400C08F1010208F102086044F4
:103DC0005FFA88F800F8101C07F1680151FA82F2D6
:103DD00002F8105CE0E7002156E700BFC354010879
:103DE000D8020024CA5401080400000118F80A305F
:103DF00054F823B087F84730D7F8943033B3D7F866
:103E00009830984522D2D7F8943033F818607A6BFE
:103E1000012107F14700FB6B984700281ADB0E4B86
:103E20000544BBF1000F08BF9B4626B95846FDF775
:103E300063FA461CB6B27A6B31465846FB6B98471C
:103E4000002807DB054408F1010850E70026DEE7FB
:103E5000354644E6054642E6C354010830B50446FB
:103E6000EFF31185102383F31288BFF36F8F044B98
:103E70000FCB84E80F0085F31188BFF36F8F30BD3F
:103E80004803002401281FB50C4605D004281DD086
:103E90006FF0150004B010BD0EF00DFC42F2107270
:103EA0000023FDF7FDF9104B5A43C4E90001A2605D
:103EB0006846FFF7D3FF694620460BF0DCFB18B9D4
:103EC0000A4B0FCB84E80F000020E3E70EF0F3FB72
:103ED00042F210720023FDF7E3F9034B5A43C4E9A1
:103EE0000001A260F0E700BFA0860100E8390108E8
:103EF00001287FB50D462CD18A68174B9A4228D8E5
:103F00000EF0D9FB42F210720023FDF7C9F94042CE
:103F1000124B61EB41015343CDE900016846029326
:103F200000F0ACF8294668460BF0A5FBEFF31186CC
:103F3000102383F31288BFF36F8F094D9DE80F00A4
:103F400085E80F0086F31188BFF36F8F002004B05F
:103F500070BD6FF01500FAE7FFC99A3B6079FEFF6C
:103F600048030024014B1860704700BF5001002433
:103F70002DE9F84340F26C73446905690646E11780
:103F8000E41805F10105C76841F10001022D07F1B0
:103F9000FF378CBF00230123E41A61F100010029DF
:103FA0004EDA6FF4C7704FF4C8720023201861F125
:103FB0000001FDF725F9254B4FF03C0E032D03FBC7
:103FC0000044024634BF09206FF00200D6E90083A6
:103FD000B66805444FEAE37C994699206346454319
:103FE0000520C6FB0E93A9FB0EC602350EFB036629
:103FF000A30840F26D1E1CEB080C0EFB043346EBCD
:10400000E8763B446427B4FBF7F4B5FBF0F51B1BE3
:104010000F4C2B44A2FB042004FB010198180D4A0D
:1040200041F1000380180C4A63F10003A0FB020178
:1040300002FB031110EB0C0041EB0601BDE8F88315
:104040004FF4C87200232046B3E700BF70FEFFFFA5
:10405000B13A02009405F5FF8051010010B5FFF759
:1040600087FF002402460B46034904F059F94450E7
:104070001046194610BD00BF0C0000001F4B70B564
:1040800082689A4215DD0133D0E9001692FBF3F302
:1040900001294FEAE37476F100051CDAC91844EBF4
:1040A0000604C0E90014164901FB032383600120C4
:1040B00070BD002AFBDA9B1A124ED0E90041B3FB17
:1040C000F6F3002910DA01F100459C4275F1000574
:1040D0000ADA0020ECE7CD439D426FF00045A5EBE6
:1040E0000605A541DADAF4E7E41A06FB032261F1DA
:1040F00000018260C0E90041D9E700BFFFC99A3BD7
:10410000003665C400CA9A3B08B500F0B7F80A4902
:1041100001220023416109490361C0E900220A60CC
:1041200007490A60074A1360074A1360074AC0E953
:104130000233136008BD00BF225B01087001002438
:104140006C010024280E0024240E0024200E0024DC
:104150002DE9F04781468846174600F08FF8C3687E
:1041600004461BB943691A78002A3ED10023E36054
:1041700063684B4558F8232008DB314B63612046C8
:1041800000F060F84FF0FF30BDE8F087511C61612E
:1041900092F800A0BAF12D0FEFD1951C6561567809
:1041A0002D2EA66004D1927872B901336360E4E7E2
:1041B00056B9234D5146384665610EF085FB0028FF
:1041C000DDD05646C4F808A0314638460EF07CFBD8
:1041D0003A2E00D070B92B7813B96368013363604D
:1041E000204600F02FF83F20CEE75D1C45611E7889
:1041F0008660E9E743783A2B0BD0002323612B78C4
:1042000013B9636801336360204600F01BF8A068AF
:10421000BAE72B780A4A33B963680133994563607A
:1042200004DD58F82350C4E90452EAE762612046ED
:104230003D783A2DD5D100F005F82846A4E700BF17
:10424000225B01080168084A084B11604168084A6E
:1042500011608168074A1160074AC16811600269EC
:104260001A6004F0E3BC00BF70010024200E00249B
:104270006C010024280E0024240E002400487047FE
:1042800054010024054B00205A6822F002025A60B3
:104290005A6822F001025A60704700BF0010005CAB
:1042A00008B5416805480C3183681B681BB1984705
:1042B00000EAE07008BD6FF05700F9E7FC2F010835
:1042C0000A2810B502D90024204610BD044B53F82B
:1042D000204020460EF002F80028F5D1F3E700BF99
:1042E000883F01084FF000530021034A43F8041BA4
:1042F0009342FBD1704700BF0000022008B504F0D4
:1043000043F804F013F80C4B0C4A1A600C4AD368BB
:1043100023F0070343F00203D3600A4B1A6841F20B
:104320000303B3EB124F06D1074AD2F8083143F02A
:104330000103C2F8083108BD3C0200240090D003FC
:10434000004802580010005C008000512DE9F04741
:10435000044607464FF00109DFF84C8094FAA4F5B3
:10436000B5FA85F509FA05F32E0108EB05156FEA94
:10437000030A24EA03042B7B63B158F806301B6957
:104380006BB946440322284607EA0A07736819688E
:104390000BF04CFD002CE1D13846BDE8F0872846F3
:1043A00098470028F6D1ECE74438010810B5002200
:1043B00088B00E490E480EF0C6F9002200230024F2
:1043C0000C490D480094CDE906230E234FF44072AA
:1043D000CDE90334CDE90144084B07F087FB0849D8
:1043E000054807F03DFA204608B010BD0544000816
:1043F0001808002480130024580300246147000893
:10440000B9560108014807F0CFB900BF34030024B2
:104410002DE9F047804620480F460BF0D7FC0646B2
:10442000002832D000252846BDE8F087237B83B1E1
:104430002368DB680BB120469847636883F80690D1
:1044400023681B69CBB963680322204619680BF007
:10445000EDFC013610345445E8D3B8F1000FE2D03A
:10446000002DDFD02846FFF771FF0546002FF7D05B
:10447000002164200EF0B7F8F2E7204698470028A4
:10448000E1D009FA06F31D43E3E7044C0546DFF8E3
:1044900010A04FF00109DEE7EC0E002444380108BB
:1044A00064380108014B53F8200070470C400108A4
:1044B00008B5034608462BB1044A136000F04AFDD4
:1044C000002008BD6FF01500FBE700BF7401002459
:1044D00010B5044C237813B9034807F065F901239C
:1044E000237010BD241300243403002410B50446A7
:1044F0000B480BF06BFC5CB10A4BBFF35B8F53E8CE
:10450000001F013943E80012002AF8D1BFF35B8F86
:10451000054808F0F7F80548BDE8104007F044B931
:10452000E40E0024E80E00241808002434030024BC
:10453000064B0022BFF35B8F53E8000F43E80021D6
:104540000029F9D1BFF35B8F704700BFE40E002450
:1045500070B5FFF7EDFF084C0546084EB44200D396
:1045600070BD63685B792BB123685B6813B1294622
:10457000204698471034F1E74438010864380108B0
:1045800010B5044C044920460BF0B3F9034B1C60F2
:1045900010BD00BF98020024F83F0108DC0E002483
:1045A00000230E4A4FF47A710D4810B513700D4A6E
:1045B00013600D4A1360FFF77BFFFFF7E1FF00F088
:1045C0007BF90A4B0A4918468B4200D310BD1A1AD0
:1045D0005C681033121101322271F5E725130024B3
:1045E000E7FD0008E40E0024E80E0024443801082A
:1045F0006438010801460022002301480BF09AB9F3
:104600009802002401480BF031BA00BF9802002440
:10461000024B014618680BF084BA00BFDC0E002480
:1046200001480BF0B9BA00BF98020024354B2DE9C0
:10463000F0411B78002B61D0FFF7E4FF044600280F
:1046400058D1314B314D1B68002B12DD0EF033F881
:104650000A220023FCF724FED5E90032C01A40F2FA
:10466000E93361EB0201984271F1000101D3FFF7D8
:104670006FFFD5E9003213F57A7342F10002C5E904
:104680000032002C3AD0BDE8F041FFF7C9BF6B689B
:104690005B793BB121784B0717D52B68214628461B
:1046A0001B68984710354545F1D32046FFF7B0FF0A
:1046B000174BBFF35B8F53E8001F013943E800122B
:1046C000002AF8D1BFF35B8FBBE726882046C1F3F1
:1046D000C20700F09FFAC6F382160246002EDCD015
:1046E0000028DADB01233946284600F08FF9B04272
:1046F000D8D3D2E7074DDFF82080D4E70020BDE80B
:10470000F08100BF24130024E40E002410080024CC
:10471000E80E0024443801086438010870B50D4DD6
:10472000297861B90C4C01200C4EFFF771FEB442A0
:1047300006D3FFF77BFF0028FBD101232B7070BD50
:1047400063685B791BB1236820469B6898471034E7
:10475000EDE700BF25130024443801086438010840
:1047600000212DE9F8430846FFF752FE044648B3FE
:104770004FF4FA784FF000091B4B03F0D1FD1B4AB0
:104780001B58136033B11A4B1B68092B02DD194803
:1047900007F00AF80025184F44B12046FFF7D6FD70
:1047A000044618B94FF0FF384FF0FF39FFF73EFFCE
:1047B000064628B9B5B90F4842464B4607F02AF8D5
:1047C0003546E9E74FF0FF384FF0FF39D4E72B6863
:1047D0009B691BB100222846114698471035BD42FF
:1047E000F5D3E8E7054DFAE708000000E00E0024E5
:1047F000E80E00243403002464380108443801081A
:1048000013B518480BF0E2FA174B1B7873B1EFF3AE
:104810001184102383F31288BFF36F8FFFF706FF15
:1048200084F31188BFF36F8F02B010BD0F4B1B686C
:10483000002BF9D050B9002200230D48CDE9002308
:1048400042F21072002307F037FFEDE70928EBD1A1
:10485000074807F057FF074802B0BDE8104006F0D0
:10486000A3BF00BFE80E002425130024E00E00249F
:104870001808002434030024064B10B504461B68B6
:1048800098472146A06004480BF0D1F8BDE81040DD
:10489000FFF7B6BF7401002498020024044A054BB8
:1048A0009B1AB1EBD30F34BF52F831000020704790
:1048B000AC37010844380108084B0021084A094870
:1048C0009B1ADB08994200D170470268013122F03F
:1048D000070242F0030240F8042BF3E744380108D2
:1048E000AC370108D4020024F8B50B4F06460B4B39
:1048F0000024DB1BDD08AC4203D14FF0FF3420461F
:10490000F8BD57F8340020B13146FCF7E3FC00282D
:10491000F5D00134EFE700BFAC3701084438010897
:1049200000282DE9F047884615461F461DDADFF8B6
:1049300098904FF0000A254E5446A6EB090636091A
:10494000B24509F1100902D12046BDE8F08759F8B7
:104950000C0C3B462A46414600790AF1010AFFF752
:10496000DFFF844238BF0446EAE7194B194AD21ADE
:10497000B5EBD20F25D203EBC5031C79BC4228BF8F
:104980003C46C0B20722144E002100EB400056F80E
:104990002530824023EA020304F0070282401343D9
:1049A000032223FA02F0033200F00700814238BFED
:1049B00001461E2AF5D123F007030B4346F82530A4
:1049C000C2E70024DDE700BF44380108643801086D
:1049D000AC37010844380108D4020024F8B5094D69
:1049E0000646094B0F460024ED1AED08AC4200D3F1
:1049F000F8BD22B201343B4600213046A4B20BF090
:104A00000DFAF3E744380108AC37010870B141688A
:104A1000097973B1002A17DBCBB20C4903EB4303CE
:104A200051F82200D84000F0070070474FF0FF31E6
:104A3000EFE707490748401AB2EBD00F3ABF01EB46
:104A4000C20108791846704704207047D402002438
:104A5000AC370108443801082DE9F04F8FB0C1F39D
:104A60004A260D46904604AF0C0DB8607B60002EC0
:104A700065D04FF000090A234FF0040B07F1140A28
:104A8000FE604A46C7F824904046C7E9079900935C
:104A900007F11C03CDF808B0CDF804A0F968FEF7C3
:104AA000EFFFB0F5006F034620D32948036813F0E9
:104AB000060F17D06C468AB0D8F8041004AB254D09
:104AC0001A46C3E9055140F2FF71D9614FF40071F4
:104AD0001984214B42F8103F4FF412514B46FFF717
:104AE000BBFFA5462C37BD46BDE8F08FC0F30A06D4
:104AF00004F117003B60184466F3532520F00700CB
:104B00008008FFF777FD044680B13B6800F1100193
:104B1000124A4046F961C7E908390A23009307F1B0
:104B20001C03CDE901ABF968FEF7AAFF66F3532534
:104B30007B68B96820462A460BF0ACF9D2E704F14D
:104B4000170020F007008008FFF754FD0446EDE74A
:104B5000E4020024CE5601080400000167FE0008AC
:104B60002DE9F04F87B00546884614469946DDE9A1
:104B7000127ADDE9106BDFB110213B465A46002066
:104B8000CDF800A0CDF814A00AF07EFBB0F5006FC0
:104B900001460FD31D48036813F0060F32D040F2D0
:104BA000FF731B4A022107B0BDE8F04F0BF0CBB9F1
:104BB0003946384604F0070305F00704E40044EAE8
:104BC000831444EA402444EA065406F11700039192
:104BD000084420F007008008FFF70CFD054640B1AF
:104BE0003FB13B465A4603991030CDF800A00AF079
:104BF0004BFB4B4622464146284607B0BDE8F04FE6
:104C00000BF048B907B0BDE8F08F00BFE402002404
:104C10000D570108406820B1034BC01A40F38F00C4
:104C200070474FF0FF307047D40200240EB403B534
:104C300003AB0146054853F8042B019303F04AFDEA
:104C400002B05DF804EB03B0704700BFA9FF000895
:104C5000CA0605D48B064CBF02490349FFF7E6BFDD
:104C6000704700BF215B0108455701082DE9F04F4F
:104C70008BB0994604460D46179B9DF858800793C4
:104C80001A9F0692DDE918A30593B8F1000F00F012
:104C9000BF80844B07F0020B13F80830089307F429
:104CA000807309930BF0B8F8024600287DD07E4946
:104CB0002046FFF7BBFF0646BBF1000F08D017F0F8
:104CC000440F74D12A4679492046FFF7AFFF0644C6
:104CD00007F0010353B1764B2046764953F828205C
:104CE000754B002A08BF1A46FFF7A0FF07F4807330
:104CF000002B07F0080318BF4FF00009002B00F04D
:104D000082806E4B20466E4953F82820FFF78EFFB5
:104D10000546069B2BB11A466A492046FFF786FFD7
:104D20000544B9F1000F0DD0089B002B6ED06649E9
:104D3000664BB8F1040F18BF19464A462046FFF7E4
:104D400075FF054435446248079B1BB12246614903
:104D50000AF043FC059B002B00F09080DDF81490D6
:104D6000002639462046B9F1100F28BF4FF0100930
:104D7000FFF76EFFB54252DC002633461AF80320D7
:104D800020465549FFF752FF0136102E4DD07107CE
:104D900003D152492046FFF749FF4E453346EDD334
:104DA0004F492046FFF742FFEEE7064684E74D4BAA
:104DB000186800288BD04C4B4FF47A7B4FF03C0C9A
:104DC0001B68B5FBF3F5B5FBF0F100FB11554FF493
:104DD00061630BFB05F5B1FBF3F2B5FBF0FE03FBE2
:104DE000121100FB1E55B1FBFCF30BFB05F50CFB90
:104DF0001311B5FBF0F5009120463C49CDE901E5E2
:104E0000FFF714FF63E707F0080582E72F4994E7EF
:104E1000B9F1010F45460CBF2D48354894E72F499D
:104E200020460136FFF702FFA4E70026314920465D
:104E3000FFF7FCFE33461AF8032020462E49A2F164
:104E400020035F2B28BF2E22FFF7F0FE0136102E25
:104E50000DD0720703D121492046FFF7E7FEB14587
:104E60003346E8D81D492046FFF7E0FEEEE7059BF4
:104E7000CA44B3EB090305937FF470AFB8F1000F98
:104E80000AD0FB0704D50C4A20460A49FFF7CEFE9C
:104E900039462046FFF7DCFE20460BB0BDE8F04F58
:104EA0000BF075B88D7901083A650108565701086D
:104EB0001C400108D25D0108485701083040010834
:104EC0007C570108825701084D57010851570108C6
:104ED000A9FF0008D5860008865701088E570108EB
:104EE0008C570108F40E0024F00E002460570108CE
:104EF000DFFF0008905701081E65010842F20F739A
:104F0000114A8B4273B5044628BF0B46056805213C
:104F1000684607F0FBFC636806460B2228465B6880
:104F20000A490BF026F863683246694628465B68F2
:104F30000BF01FF863681B2205495B6828460BF0DD
:104F400018F802B070BD00BFBF6B0108817901087D
:104F50006579010800210123064A904206D8064AD5
:104F600001B901231360054B186070474008012107
:104F70005B00F2E740420F00F00E0024F40E002424
:104F8000F8B50D4604464618054FB44201D12846EF
:104F9000F8BD14F8011BBB6801485B689847F4E74B
:104FA000DC310108014B03600120704778400108A3
:104FB00010B5044606F078F9034A03460821204656
:104FC0000BF0ACFA002010BDF357010837B51346BB
:104FD000002205460A21019201AA586801F09EFEAE
:104FE000019C4CB920EAE0700A21A0FB01010DF000
:104FF000FAFA204603B030BD2346034A0121284671
:105000000BF08CFA019CF4E71F58010808B5034A1D
:105010000821034B0BF082FA002008BD1659010845
:105020000F590108F7B517460023054601AA0A21C2
:10503000B868019301F072FE194AC6B203212846EE
:105040000BF06CFA019C4CB12346164A012128460C
:105050000BF064FA019C204603B0F0BD042E0AD97F
:105060003346114A012128460BF058FA28460124FC
:105070000BF08AFAEFE77868FFF736FC021E08DAD1
:105080007B680121094A28466FF015040BF046FAA7
:10509000E1E7334612B2214620460AF0BFFEDAE7C6
:1050A00041590108A7590108CE590108E5590108DD
:1050B000002307B50090694604488DF8043007F0D6
:1050C0009BF89DF8040003B05DF804FBDB000108C9
:1050D00038B50446EFF31185102383F31288BFF32C
:1050E0006F8F06F0C9F8034685F31188BFF36F8F01
:1050F000074A204608210BF011FA064A20460821EB
:105100000BF00CFA2146044807F090F8002038BD57
:10511000445A0108635A01081D51000870B58EB049
:1051200004460D46D0F8A0600DF06EF9264B0246FD
:1051300003F0F6F819582846244B002A18BF1346E6
:10514000234ACDE90043234B8C4218BF1346224A21
:1051500008210BF0E3F928460821D4E90823CDE91A
:10516000022394F90E301D4A0093A3890BF0D6F95F
:1051700006A92022204606F089FBA26E03460821DC
:1051800000922846164A0BF0C9F905A920460DF0F1
:1051900049F9034630B1134A082128460BF0BEF9FD
:1051A0000EB070BD059A64232846B11A4B43B3FB79
:1051B000F6F3CDE90021CDE902630B4A334608211D
:1051C0000BF0ACF9ECE700BF080000006D5A0108D5
:1051D0008E5701083A6F0108705A01087C5A01087D
:1051E000A85A0108BF5A0108EC5A010830B593B01B
:1051F0000446202200210AAD28460DF04DFB1A225C
:10520000202128460DF048FB2146114807F00EF8F2
:1052100009AA4FF400610F480DF0F8F8099A6423C9
:105220000195C2F50061002520464B430095DB0A3D
:1052300006934FF40063CDE90413CDE90232054B28
:105240000821054A403B0BF069F9284613B030BDF0
:105250005D520008401F00243D5B0108F0B5044684
:1052600089B00D46D0F8A06007A90DF0DBF8034621
:1052700030B1104A082128460BF050F909B0F0BDB2
:1052800020460D4F0DF0C0F8079A6423002818BF80
:105290000746B11A28464B43B3FBF6F3CDE902218A
:1052A000CDE90463054A23460821CDE900760BF0D9
:1052B00035F9E3E7BF5A01086D5A0108865B01081A
:1052C00038B51346054610220021586807F036FD10
:1052D0000446FFF7EDFE40B923460F4A0121284658
:1052E0000BF01CF96FF0150038BD0C4B03F018F8EB
:1052F0001B589C4205D10A4A012128460BF00EF9A1
:10530000F0E7204606F090FB28462346054A082190
:105310000BF004F90020E7E7EA5B01080800000051
:10532000055C01082D5C010838B5134605461022BE
:105330000021586807F002FD0446FFF7B9FE40B9A6
:1053400023460F4A012128460BF0E8F86FF01500BC
:1053500038BD0C4B02F0E4FF1B589C4205D10A4AB1
:10536000012128460BF0DAF8F0E7204606F07CFB36
:1053700028462346054A08210BF0D0F80020E7E72D
:10538000EA5B0108080000006C5C0108925C0108FF
:1053900038B51346054610220021586807F0CEFCA8
:1053A0000446FFF785FE40B923460F4A01212846EF
:1053B0000BF0B4F86FF0150038BD0C4B02F0B0FFE5
:1053C0001B589C4205D10A4A012128460BF0A6F839
:1053D000F0E7204602F03EFF28462346054A082112
:1053E0000BF09CF80020E7E7EA5B010808000000EA
:1053F000CD5C0108F25C010810B50C4600210BF0F1
:105400002CFB00B100680023024A2060E360C4E97D
:10541000012310BD125E010810B50C4600210BF0EF
:1054200020FB00B100680023024A2060E360C4E969
:10543000012310BD125E010873B50546506814467D
:105440000BF013FB064650B963686FF01204114A63
:10545000012128460BF062F8204602B070BD0CF026
:105460003DFF38B163680C4A0221284600240BF046
:1054700055F8F1E730460CF028FF6368044630B178
:1054800000900121054A28460BF048F8E4E7044A59
:10549000EAE700BF2A5D01083F5D0108615D010880
:1054A0008E5D01082DE9F04F8FB004468846914685
:1054B00001A805F085FF019F2D4A082107EB401741
:1054C00020460BF02BF8019EBE4203D300200FB004
:1054D000BDE8F08F35680DB12B7833B902AD334696
:1054E000244A302102A807F011FAB8F1020F07D1BF
:1054F000D9F8041028460DF025FA08B92036E3E75C
:105500002B461D4A082120460BF008F830460CF0C7
:10551000E5FE1A4A1A4B0821002808BF1346194A0B
:1055200020460AF0FBFFF369002BE7D01D68002D31
:10553000E4D02B68002BE1D0AB464FF0000A124AB2
:10554000082120460AF0EAFF2B68534505D80F4A88
:10555000082120460AF0E2FFD0E75BF8043F08216B
:105560000B4A20460AF1010A0AF0D8FFECE700BF17
:10557000C15D0108CB5D0108D05D0108B85D01087F
:10558000B25D0108385D0108D55D0108215B0108A5
:10559000D15D0108F7B5137806460F4615463A2B3C
:1055A00014D1541C23783A2B29D101340A2201A9A1
:1055B000204607F04FFB019A03463860A24218D0FC
:1055C0001078B0B93C2B16D9164A0EE00A2201A970
:1055D000284607F03FFB019CB860AC4209D0237815
:1055E0003A2B06D1172808D90F4A012130460AF074
:1055F00095FF6FF0150003B0F0BD0134D2E70A2229
:1056000001A9204607F026FB019B7860A342F0D059
:105610001A783A2AEDD13B2801D9044AE5E75C1C07
:10562000C4E700BF7A5E01085C5E01086A5E01089B
:105630002DE9F04196B00D460446012008A9174611
:10564000FEF720FC0DA908A807F0B2F8032D57D1EA
:105650007D680A2207A9284607F0FCFA079E8046C3
:10566000B54216D032782D2A13D101360A2207A965
:10567000304607F0EFFA079B9E420AD01A782D2A8F
:1056800007D1451E0B2D0DD9314A012120460AF0C4
:1056900045FF20460AF078FF6FF01505284616B042
:1056A000BDE8F0815E1C0A2207A9304607F0D2FA55
:1056B000079B9E42EDD01B78002BEAD1431E1E2B88
:1056C00001D9244AE1E7A8F26C73BA681090CDE9D9
:1056D00011530DA92046FFF75DFF0028D9D10DA871
:1056E000FEF7BCFCB1F1FF3F08BFB0F1FF3FCDE9D1
:1056F000080109D1184A012120460AF00FFFCBE723
:10570000022DC6D17A68E4E700230A93012008A994
:10571000FEF7EEFB054630B10346104A0121204654
:105720000AF0FCFEB8E70D9B08210D4A20460493C1
:105730000E9B03930F9B0293109B0193119B0133CC
:105740000093129B03F26C730AF0E8FEA6E700BF19
:105750008A5E0108995E0108A65E0108CF5E010815
:10576000E65E010810B594B00446012006A9FEF7D4
:1057700089FB0BA906A807F01BF80B9B20460A4AD9
:10578000049308210C9B03930D9B02930E9B0193A2
:105790000F9B01330093109B03F26C730AF0BEFE63
:1057A000002014B010BD00BFE65E01082DE9F341F2
:1057B00014468846074610220021606807F0BEFAAA
:1057C000B8F1020F064620D90A220021A06807F08E
:1057D000B5FAC5B22B46234A082138460AF09EFE88
:1057E000B8F1030F22D8102D11D0202D12D0082D82
:1057F00012D13378DBB2002208213846CDE90032DD
:10580000194A0AF08BFE00200DE02025E2E73388DC
:105810009BB2F0E73368EEE73846144A08210AF0F5
:105820007DFE6FF0150002B0BDE8F0811022E06847
:10583000002107F0E9FA0E4A0446CDE900010821EB
:1058400038460AF06BFE102D06D0202D07D0082D0B
:10585000E2D1E4B23470D6E7A4B23480D3E7346046
:10586000D1E700BF355F0108605F01084A5F0108AA
:10587000735F01082DE9F047002386B04FF0FF3534
:10588000914601930122524B20262C46074688461A
:105890001A60FEF739FC4F4A49464046FEF758FC6D
:1058A000431C07D1691C43D14B4A012138460AF0F9
:1058B00035FE18E073281BD0772829D0612812D133
:1058C000DFF818A101AA1021DAF8000001F026FA89
:1058D000019B0546002BDED0DAF80030404A01215A
:1058E00038460AF01BFE6FF0150006B0BDE8F087E1
:1058F000DFF8E8A001AA0021DAF8000001F00EFAB2
:10590000019B0446002BC6D0DAF80030354AE6E7A2
:10591000DFF8C8A001AA0021DAF8000001F0FEF9C2
:10592000019B0646002BB6D0DAF800302E4AD6E7A7
:10593000621C01D12D4AB8E75FFA86F8C6F3C406A7
:10594000A8F10803DBB2182B04D8294A22FA03F382
:10595000DB0722D44346274A0821C1E7B8F1100FDC
:1059600022D0B8F1200F25D0B8F1080F01D10A7864
:105970001A70314433444218102AEFD9102CA14632
:10598000294605F1100528BF4FF0100902AA384634
:10599000A4EB09044B4601F0E9F9B4B1A642EDD8F5
:1059A00002AB2946701BE6E70A8892B21A70120A07
:1059B0005A70DEE70A68C2F3072C1A70120C83F8DB
:1059C00001C09A70120ADA70D3E720468DE700BF53
:1059D0006C010024C35F0108CA5F0108200E002487
:1059E000895F01089C5F0108AF5F0108E75F01085C
:1059F000010100010160010870B50F4E04460D461B
:105A0000337831B12BB10D4A0121BDE870400AF065
:105A100085BD83F00103337033B1094A0821204664
:105A20000AF07CFD01233370294620460022BDE8A0
:105A300070400AF0C3BD00BF271300241B6001089B
:105A4000566001082DE9F04105460C468F18DFF835
:105A5000DC80374EBC4201D1BDE8F08198F80020CF
:105A600014F8013B182A23D1112B21D1314C0026E7
:105A7000314A08212368284688F800600AF04EFD64
:105A800028463146FFF7B8FF2C4B18780028E3D1A1
:105A90002B4A23681168042B2EDC08B123601160A7
:105AA00013F003012FD1126813681BBA1360D3E7F8
:105AB000A3F1300288F80030092A04D923F020022B
:105AC000413A052A04D831681E4A535401313160E5
:105AD0003368022BBED1102200211A4807F02EF99C
:105AE000194A136803F8010B1360124A1368013353
:105AF000136000233360ADE70868043B00BA41F847
:105B0000040B0120C7E75B4203F0030358BF59426F
:105B1000022904D1126813685BBA9BB2C6E7032955
:105B20009AD1126813681BBA1B0ABFE72813002416
:105B30001C0F0024200F002480600108291300247A
:105B4000240F00242A130024280F00242DE9F843F1
:105B500000230D4627498046274E17460B602749EC
:105B600033700B60012DB94657F8044F1DD902223E
:105B7000234920460CF0B5FE70B9A378003B18BF4E
:105B800001231C4402221F4920460CF0AAFE28B91A
:105B900001233370013DE5E70023F2E71849204671
:105BA000FBF798FBC0B909F104090022D9F80400F9
:105BB000114607F0C3F80022134B11461860D9F8BC
:105BC000040007F0BBF8114B114918604046FFF77D
:105BD00013FF0020BDE8F88323782D2BE5D16378EF
:105BE000002BE2D023460B4A082140460AF096FCDF
:105BF000D0E700BF1C0F002429130024200F00242D
:105C00009A6001089D600108280F0024240F0024D9
:105C1000455A0008A060010807B509480CF05EFB72
:105C200058B104233A22064900930123054800F0A5
:105C30008DFF002003B05DF804FB6FF01200F9E760
:105C4000DC3101086438010810B54468A360C4E978
:105C5000001242684021134653F8404B516302F151
:105C6000380153620023C2E9041308211363C2F808
:105C7000B8301162C2E90A33C2E90633A36823B11E
:105C80009B6C13B1044920469847A3689B6A0BB1EB
:105C900020469847002010BD9D5C00082DE9F74F75
:105CA000836805460C465B6C03B19847AB685B6B39
:105CB000002B35D14FF0000804F12409DFF820A1B2
:105CC000218E04F1280B238D4846626B5B1A5946DE
:105CD0009BB2D31A934228BF134601AA09F074FF5E
